:020000020000FC
:1000000058E05EBF5FE55DBF5FEF5ABB57BBC2986C
:100010000E9448000EE00E94290001E00E94290091
:100020000E94480006E00E94290008E40E94330074
:1000300002E40E94330004E40E94330003E40E94BF
:10004000330002E50E94330007E30E9433000C9462
:1000500027000BBBC098C198C29A0E943D00C2986D
:100060000E94400008950BBBC09AC198C29A0E949A
:100070003D00C2980E9440000895000000000895CD
:100080001F931CE30E943D001A95E1F71F9108950C
:100090001F9314E10E9440001A95E1F71F91089503
:00000001FF
