:020000020000FC
:020000003FC0FF
:020028006CC0AA
:020040003DC0C1
:1000800008E00EBF0FE50DBF60E070E080E090E09B
:10009000A0E0B0E0D0E000E00ABB0FEF07BB42E019
:1000A00049BF789448EC4CBF40E042BF42E043BFB8
:1000B00008E806B901EE07B9369AFFCF55B1C4E09A
:1000C000652FC69FD00DE11DCAE1C79FD00DE11D70
:1000D000CCE1C89FD00DE11DCCE1C99FD00DE11D41
:1000E000CAE1CA9FD00DE11DC4E0CB9FD00DE11D38
:1000F000E8BBBA2FA92F982F872F762FD0E0E0E00A
:0A010000189500E002BF369A18952A
:00000001FF
