:020000020000FC
:1000000008E00EBF0FE50DBF60E070E080E090E01B
:1000100000E00ABB0FEF07BB003071F0013089F040
:100020000230A1F00330B9F00430D1F00530E9F02E
:10003000063001F10C943F00C1E0D69F08BA0C9441
:100040004400C2E0D69F08BA0C944400C1E0D69F99
:1000500008BA0C944400C1E0D69F08BA0C9444003E
:10006000C1E0D69F08BA0C944400C1E0D69F08BAFC
:100070000C944400C1E0D69F08BA0C944400C1E03F
:08008000D69F08BA0C9444005D
:00000001FF
